:1000000065C0000080C000007EC000007CC0000011
:100010007AC0000078C0000076C0000074C0000004
:1000200072C0000034C100006EC000006CC000004F
:100030006AC0000068C0000066C0000064C0000024
:1000400062C0000060C000005EC000005CC0000034
:100050005AC0000058C0000056C0000054C0000044
:1000600052C0000050C000004EC000004CC0000054
:100070004AC0000048C0000046C0000044C0000064
:1000800042C0000040C000003EC000003CC0000074
:100090003AC0000038C0000036C0000034C0000084
:1000A00032C0000030C000002EC000002CC0000094
:1000B0002AC0000028C0000026C0000024C00000A4
:1000C00022C0000020C000001EC0000011241FBE7E
:1000D000CFEFD1E2DEBFCDBF12E0A0E0B2E0E0ECB6
:1000E000F3E000E00BBF02C007900D92A831B1070A
:1000F000D9F722E0A8E1B2E001C01D92AA31B2070F
:10010000E1F718D15BC17CCF9FB7F89484BB68B985
:1001100087E084BB99230CF47894089560E080E034
:10012000F3DF60E081E0F0DF60E082E0EDCF089592
:10013000E62FF0E0E85FFD4F90E8499FA001112411
:100140006081642BE1CF08950F931F93CF93DF93CA
:100150008C019C01ADECBCEC22D1FC01F695E7953D
:10016000F695E795F695E795CF01880F991FEE0F65
:10017000FF1FEE0FFF1FEE0FFF1FE80FF91FC80153
:100180008E1B9F0BFC010BD1AC01569547955695E4
:100190004795569547959A0102D1EC01D695C7959A
:1001A000D695C795D695C795CE01880F991FCC0FC8
:1001B000DD1FCC0FDD1FCC0FDD1FC80FD91FCA01FB
:1001C0008C1B9D0BEC010A30110558F440E06E2F9A
:1001D00080E0AEDF60E081E097DF60E082E094DF06
:1001E0003DC00436110560F440E06E2F80E0A0DFD2
:1001F00040E06C2F81E09CDF60E082E085DF2EC074
:1002000040E06E2F80E094DF40E06C2F81E090DFD3
:1002100098013695279536952795ABE7B4E1BFD081
:10022000AC01569547959A01ADECBCECB8D09695CB
:10023000879596958795969587959C01220F331FF4
:10024000880F991F880F991F880F991F820F931F7E
:10025000BA01681B790B40E082E06ADFDF91CF9141
:100260001F910F9108959FB7F89423E024BB88B99C
:1002700087E084BB99230CF4789408958FEF87B9B5
:1002800087E083BB249A4ADF8FEFEDCF08951F925A
:100290000F920FB60F9211240BB60F922F933F932C
:1002A0004F935F936F937F938F939F93AF93BF937E
:1002B000EF93FF931D9909C0809118029091190244
:1002C00001969093190280931802809118029091E0
:1002D0001902883E934020F01092190210921802E1
:1002E00080911802909119022FDFFF91EF91BF9139
:1002F000AF919F918F917F916F915F914F913F91BE
:100300002F910F900BBE0F900FBE0F901F9018955E
:100310008FE087B98FEF88B980E88EB98BB1886399
:100320008BB9089580E680936B0081E0809368002C
:1003300078940895CF93DF93CDB7DEB728970FB6A3
:10034000F894DEBF0FBECDBFE3DFECDF97DF809117
:10035000180290911902F8DE88E0E0E0F2E0DE0198
:10036000119601900D928A95E1F780E090E08C0162
:100370000F5F1F4F87709927E1E0F0E0EC0FFD1F42
:10038000E80FF91F80816FDF2FEF84E39CE021509D
:1003900080409040E1F700C00000C801E8CFA29F74
:1003A000B001B39FC001A39F700D811D1124911D49
:1003B000B29F700D811D1124911D0895F894FFCFF7
:1003C00081C3E7FF7E3C18003F065B4F666D7D27CB
:0803D0007F6F777C395E7971C3
:00000001FF
