:1000000065C0000078C0000076C0000074C0000029
:1000100072C0000070C000006EC000006CC0000024
:100020006AC0000068C0000066C0000064C0000034
:1000300062C0000060C000005EC000005CC0000044
:100040005AC0000058C0000056C0000054C0000054
:1000500052C0000050C000004EC000004CC0000064
:100060004AC0000048C0000046C0000044C0000074
:1000700042C0000040C000003EC000003CC0000084
:100080003AC0000038C0000036C0000034C0000094
:1000900032C0000030C000002EC000002CC00000A4
:1000A0002AC0000028C0000026C0000024C00000B4
:1000B00022C0000020C000001EC000001CC00000C4
:1000C0001AC0000018C0000016C0000011241FBE96
:1000D000CFEFD1E2DEBFCDBF12E0A0E0B2E0E6E6B6
:1000E000F3E000E00BBF02C007900D92A231B10710
:1000F000D9F7EDD036C184CF9FB7F89484BB68B9E7
:1001000087E084BB99230CF47894089560E080E044
:10011000F3DF60E081E0F0DF60E082E0EDCF0895A2
:10012000E62FF0E0EE5FFD4F90E8499FA00111241B
:100130006081642BE1CF08950F931F93CF93DF93DA
:100140008C019C01ADECBCECFDD0FC01F695E79573
:10015000F695E795F695E795CF01880F991FEE0F75
:10016000FF1FEE0FFF1FEE0FFF1FE80FF91FC80163
:100170008E1B9F0BFC01E6D0AC015695479556951A
:100180004795569547959A01DDD0EC01D695C795D0
:10019000D695C795D695C795CE01880F991FCC0FD8
:1001A000DD1FCC0FDD1FCC0FDD1FC80FD91FCA010B
:1001B0008C1B9D0BEC010A30110558F440E06E2FAA
:1001C00080E0AEDF60E081E097DF60E082E094DF16
:1001D0003DC00436110560F440E06E2F80E0A0DFE2
:1001E00040E06C2F81E09CDF60E082E085DF2EC084
:1001F00040E06E2F80E094DF40E06C2F81E090DFE4
:1002000098013695279536952795ABE7B4E19AD0B6
:10021000AC01569547959A01ADECBCEC93D0969500
:10022000879596958795969587959C01220F331F04
:10023000880F991F880F991F880F991F820F931F8E
:10024000BA01681B790B40E082E06ADFDF91CF9151
:100250001F910F9108959FB7F89423E024BB88B9AC
:1002600087E084BB99230CF4789408958FEF87B9C5
:1002700087E083BB249A4ADF8FEFEDCF08959CB1CE
:10028000907880910102981739F09093010281E0F3
:10029000992319F080E0089580E0089599B198704D
:1002A00080910002981739F09093000281E0992321
:1002B00019F080E0089580E008958FE087B98FEF0E
:1002C00088B980E88EB98BB188638BB90895F5DF62
:1002D000CDDF8FEFC0DFC1E000E010E0D0DFC80F5E
:1002E000DDDF813051F1C0FF16C02FEF81EE94E0C9
:1002F000215080409040E1F700C00000C8011CDFA1
:100300000F5F1F4F073E23E0120711F400E010E0DB
:100310008FEFA1DFE3CF80E09EDFE0CF8FEF91EEA4
:1003200024E0815090402040E1F700C0000080E0D0
:1003300090E002DF01E010E0EBCFC0FDEFCF00E086
:1003400010E0E9CFA29FB001B39FC001A39F700D41
:10035000811D1124911DB29F700D811D1124911DCD
:060360000895F894FFCFA0
:1003660008803F065B4F666D7D277F6F777C395E21
:0203760079719B
:00000001FF
