:1000000065C0000080C000007EC000007CC0000011
:100010009DC1000078C0000076C0000074C00000E0
:100020004EC1000070C000006EC000006CC0000037
:100030006AC0000068C0000066C0000064C0000024
:1000400062C0000060C000005EC000005CC0000034
:100050005AC0000058C0000056C0000054C0000044
:1000600052C0000050C000004EC000004CC0000054
:100070004AC0000048C0000046C0000044C0000064
:1000800042C0000040C000003EC000003CC0000074
:100090003AC0000038C0000036C0000034C0000084
:1000A00032C0000030C000002EC000002CC0000094
:1000B0002AC0000028C0000026C000008DC100003A
:1000C00022C0000020C000001EC0000011241FBE7E
:1000D000CFEFD1E2DEBFCDBF13E0A0E0B2E0EEE3B0
:1000E000F5E000E00BBF02C007900D92AA31B10706
:1000F000D9F723E0AAE1B3E001C01D92AB31B2070A
:10010000E1F7D9D11AC27CCF813031F4E1E2F1E0DC
:100110008081816080830895883031F4E1E2F1E0EC
:100120008081826080830895803429F4E1E2F1E0E7
:1001300080818360808308959FB7F89484BB68B9F9
:1001400087E084BB99230CF47894089560E080E004
:10015000F3DF60E081E0F0DF60E082E0EDCF089562
:10016000E62FF0E0E75FFC4F90E8499FA0011124E3
:100170006081642BE1CF08950F931F93CF93DF939A
:100180008C019C01ADECBCECC9D1FC01F695E79566
:10019000F695E795F695E795CF01880F991FEE0F35
:1001A000FF1FEE0FFF1FEE0FFF1FE80FF91FC80123
:1001B0008E1B9F0BFC01B2D1AC015695479556950D
:1001C0004795569547959A01A9D1EC01D695C795C3
:1001D000D695C795D695C795CE01880F991FCC0F98
:1001E000DD1FCC0FDD1FCC0FDD1FC80FD91FCA01CB
:1001F0008C1B9D0BEC010A30110558F440E06E2F6A
:1002000080E0AEDF60E081E097DF60E082E094DFD5
:100210003DC00436110560F440E06E2F80E0A0DFA1
:1002200040E06C2F81E09CDF60E082E085DF2EC043
:1002300040E06E2F80E094DF40E06C2F81E090DFA3
:1002400098013695279536952795ABE7B4E166D1A9
:10025000AC01569547959A01ADECBCEC5FD19695F3
:10026000879596958795969587959C01220F331FC4
:10027000880F991F880F991F880F991F820F931F4E
:10028000BA01681B790B40E082E06ADFDF91CF9111
:100290001F910F9108959FB7F89423E024BB88B96C
:1002A00087E084BB99230CF4789408958FEF87B985
:1002B00087E083BB249A4ADF8FEFEDCF08951F922A
:1002C0000F920FB60F9211240BB60F922F933F93FC
:1002D0004F935F936F937F938F939F93AF93BF934E
:1002E000EF93FF9380911A03843620F4865F809306
:1002F0001A0303C084E680931A0380911A0390E0E6
:100300003BDF80911A0390E09C01220F331F880F7E
:10031000991F880F991F880F991F820F931F909321
:10032000990080939800FF91EF91BF91AF919F91B9
:100330008F917F916F915F914F913F912F910F908E
:100340000BBE0F900FBE0F901F9018951F920F922B
:100350000FB60F9211240BB60F922F933F934F932A
:100360005F936F937F938F939F93AF93BF93EF931D
:10037000FF9380911A03882321F08A5080931A03F7
:1003800002C010921A0380911A0390E0F5DE80916A
:100390001A0390E09C01220F331F880F991F880FCA
:1003A000991F880F991F820F931F90939900809334
:1003B0009800FF91EF91BF91AF919F918F917F91A5
:1003C0006F915F914F913F912F910F900BBE0F90C6
:1003D0000FBE0F901F9018951F920F920FB60F929D
:1003E00011240BB60F928F93EF93FF93E0910002CD
:1003F000EF5FE0930002F0E0EF5FFD4F80818093BC
:10040000B300FF91EF918F910F900BBE0F900FBE35
:100410000F901F9018958FE087B98FEF88B980E80B
:100420008EB988E08BB98DB980E184B9089580E8F0
:100430008093690080936A0088E88DBB82E0809396
:10044000730078940895E0EBF0E08081836080830E
:10045000A1EBB0E08C9181608C9380818068808377
:100460008FE78093B300E0E9F0E0808182608083D1
:10047000A1E9B0E08C9180618C938C9182608C9327
:1004800080818068808388EE93E0909397008093CA
:1004900096001092990010929800E1E2F1E08081BC
:1004A0008860808388E030DE80EA97E090932901BD
:1004B000809328010895CF93DF93CDB7DEB72897B7
:1004C0000FB6F894DEBF0FBECDBFA5DFBCDFAFDF38
:1004D000EDDE80E090E050DE88E0E1E0F3E0DE0178
:1004E000119601900D928A95E1F78091000291E0BA
:1004F000980F909300028770E1E0F0E0EC0FFD1F91
:10050000E80FF11D8081C7DE2FEF84E39CE02150CE
:1005100080409040E1F700C00000E7CFA29FB0010B
:10052000B39FC001A39F700D811D1124911DB29F27
:0E053000700D811D1124911D0895F894FFCFC8
:10053E00FF808386898C909396999C9FA2A5A8ABE9
:10054E00AEB1B3B6B9BCBFC1C4C7C9CCCED1D3D579
:10055E00D8DADCDEE0E2E4E6E8EAEBEDEFF0F1F328
:10056E00F4F5F6F8F9FAFAFBFCFDFDFEFEFEFFFFD0
:10057E00FFFFFFFFFFFEFEFEFDFDFCFBFAFAF9F8A2
:10058E00F6F5F4F3F1F0EFEDEBEAE8E6E4E2E0DEA7
:10059E00DCDAD8D5D3D1CECCC9C7C4C1BFBCB9B6AD
:1005AE00B3B1AEABA8A5A29F9C999693908C898669
:1005BE0083807D7A7774706D6A6764615E5B58556F
:1005CE00524F4D4A4744413F3C393734322F2D2B41
:1005DE0028262422201E1C1A1816151311100F0D72
:1005EE000C0B0A08070606050403030202020101AA
:1005FE0001010101010202020303040506060708B8
:10060E000A0B0C0D0F1011131516181A1C1E202292
:10061E002426282B2D2F323437393C3F4144474A6C
:10062E004D4F5255585B5E6164676A6D7074777A90
:10063E007D81C3E7FF7E3C18003F065B4F666D7DF4
:0A064E00277F6F777C395E79710019
:00000001FF
