:1000000065C0000080C000007EC000007CC0000011
:100010006DC1000078C0000076C0000074C0000010
:1000200036C1000070C000006EC000006CC000004F
:100030006AC0000068C0000066C0000064C0000024
:1000400062C0000060C000005EC000005CC0000034
:100050005AC0000058C0000056C0000054C0000044
:1000600052C0000050C000004EC000004CC0000054
:100070004AC0000048C0000046C0000044C0000064
:1000800042C0000040C000003EC000003CC0000074
:100090003AC0000038C0000036C0000034C0000084
:1000A00032C0000030C000002EC000002CC0000094
:1000B0002AC0000028C0000026C0000029C100009E
:1000C00022C0000020C000001EC0000011241FBE7E
:1000D000CFEFD1E2DEBFCDBF14E0A0E0B2E0E2EFAF
:1000E000F8E000E00BBF02C007900D92A23AB10702
:1000F000D9F724E0A2EAB4E001C01D92A93AB20700
:10010000E1F76CD1F4C37CCF9FB7F89484BB68B996
:1001100087E084BB99230CF47894089560E080E034
:10012000F3DF60E081E0F0DF60E082E0EDCF089592
:10013000E62FF0E0EE56FB4F90E8499FA001112416
:100140006081642BE1CF08950F931F93CF93DF93CA
:100150008C019C01ADECBCEC99D3FC01F695E795C4
:10016000F695E795F695E795CF01880F991FEE0F65
:10017000FF1FEE0FFF1FEE0FFF1FE80FF91FC80153
:100180008E1B9F0BFC0182D3AC015695479556956B
:100190004795569547959A0179D3EC01D695C79521
:1001A000D695C795D695C795CE01880F991FCC0FC8
:1001B000DD1FCC0FDD1FCC0FDD1FC80FD91FCA01FB
:1001C0008C1B9D0BEC010A30110558F440E06E2F9A
:1001D00080E0AEDF60E081E097DF60E082E094DF06
:1001E0003DC00436110560F440E06E2F80E0A0DFD2
:1001F00040E06C2F81E09CDF60E082E085DF2EC074
:1002000040E06E2F80E094DF40E06C2F81E090DFD3
:1002100098013695279536952795ABE7B4E136D307
:10022000AC01569547959A01ADECBCEC2FD3969551
:10023000879596958795969587959C01220F331FF4
:10024000880F991F880F991F880F991F820F931F7E
:10025000BA01681B790B40E082E06ADFDF91CF9141
:100260001F910F9108959FB7F89423E024BB88B99C
:1002700087E084BB99230CF4789408958FEF87B9B5
:1002800087E083BB249A4ADF8FEFEDCF08951F925A
:100290000F920FB60F9211248F939F938091A20417
:1002A0008F5F8093A204823058F080FD16C0809149
:1002B000A5049091A6049093A4048093A3040FC076
:1002C000833068F080FF0BC08091A3049091A40458
:1002D0009093A6048093A50402C08330A8F79F9151
:1002E0008F910F900FBE0F901F9018951F920F9235
:1002F0000FB60F9211241092A8041092A704109226
:10030000A6041092A5040F900FBE0F901F90189591
:1003100078941F920F920FB60F9211240BB60F9282
:100320002F933F934F935F936F937F938F939F93FD
:10033000AF93BF93EF93FF938091A5049091A60490
:100340000196883E23E0920729F09093A6048093BB
:10035000A50404C01092A6041092A5048091A504DF
:100360009091A604F1DEFF91EF91BF91AF919F9123
:100370008F917F916F915F914F913F912F910F904E
:100380000BBE0F900FBE0F901F9018958FE087B98E
:100390008FEF88B980E88EB988E08BB98DB980E19C
:1003A00084B9089580E88093690080936A0088E8A2
:1003B0008DBB7894089588E08093910080E48093C9
:1003C00090008BE08093210187EA91E690932901C8
:1003D0008093280182E0809373000895D7DFEBDFDC
:1003E000E1DF4CDF8091A5049091A604ADDE109270
:1003F000A8041092A7041BEDFF24F39400E0C0E9C9
:10040000D1E08091A20480FFABC04091A70450913D
:10041000A8049A01A1E4BBE239D2281B390B369516
:100420002795820F931F880F892F881F990B91950D
:10043000189F9001199F300D1124FA01E21BF30B54
:10044000EE0FFF1FE552FD4F80819181892B11F442
:10045000ADD022C04091A7045091A8049A01A1E414
:10046000BBE214D2281B390B36952795820F931FB8
:10047000880F892F881F990B9195189F9001199FBC
:10048000300D1124FA01E21BF30BEE0FFF1FE552B2
:10049000FD4F8081918170D04091A7045091A804B4
:1004A0009A01A1E4BBE2F2D1281B390B36952795BE
:1004B000820F931F880F892F881F990B9195189F82
:1004C0009001199F300D1124421B530BFA01E0508B
:1004D000FE4F808160919104869FB001112480E0DD
:1004E00090E09FD02B013C0120E030E04AE755E44A
:1004F00026D14B015C0120E030E040E85FE361D0B1
:100500008823FCF020E03FEF4FE757E4C501B4013A
:1005100012D1181694F420E030E040E251E4C30117
:10052000B2010DD152D06115710581F0CE01019754
:10053000F1F761507109D1F709C0C501B40145D087
:1005400002C06F2D702FCB010197F1F78091A704A6
:100550009091A80401969093A8048093A70401C0E9
:1005600025D08091A204823008F44BCF80FD49CF82
:1005700080E090E0E9DD45CF82959295907F9827C5
:10058000807F98279C0140E050E060E074E284EFB7
:1005900090E060D121503109309399002093980068
:1005A000E1E9F0E08081826080830895E1E9F0E094
:1005B0008081887F8083639B03C080E88093920062
:1005C00008956CD008F481E0089594D088F09F5786
:1005D00090F0B92F9927B751A0F0D1F0660F771F8F
:1005E000881F991F1AF0BA95C9F712C0B13081F06F
:1005F0009BD0B1E0089598C0672F782F8827B85F07
:1006000039F0B93FCCF3869577956795B395D9F7CF
:100610003EF490958095709561957F4F8F4F9F4FD9
:100620000895E89409C097FB3EF4909580957095E5
:1006300061957F4F8F4F9F4F9923A9F0F92F96E92E
:10064000BB279395F695879577956795B795F111A3
:10065000F8CFFAF4BB0F11F460FF1BC06F5F7F4F40
:100660008F4F9F4F16C0882311F096E911C0772352
:1006700021F09EE8872F762F05C0662371F096E85B
:10068000862F70E060E02AF09A95660F771F881F2A
:10069000DAF7880F9695879597F90895990F0008CE
:1006A000550FAA0BE0E8FEEF16161706E807F90744
:1006B000C0F012161306E407F50798F0621B730BDF
:1006C000840B950B39F40A2661F0232B242B252B60
:1006D00021F408950A2609F4A140A6958FEF811D03
:1006E000811D089557FD9058440F551F59F05F3FE5
:1006F00071F04795880F97FB991F61F09F3F79F044
:1007000087950895121613061406551FF2CF4695C5
:10071000F1DF08C0161617061806991FF1CF869547
:100720007105610508940895E894BB27662777272B
:10073000CB0197F90895B2DF08F48FEF08950BD03D
:1007400078C069D028F06ED018F0952309F05AC00F
:100750005FC01124EACFC6DFA0F3959FD1F3950FB8
:1007600050E0551F629FF001729FBB27F00DB11D35
:10077000639FAA27F00DB11DAA1F649F6627B00DC5
:10078000A11D661F829F2227B00DA11D621F739FAE
:10079000B00DA11D621F839FA00D611D221F749FBC
:1007A0003327A00D611D231F849F600D211D822F03
:1007B000762F6A2F11249F5750408AF0E1F088234A
:1007C0004AF0EE0FFF1FBB1F661F771F881F915057
:1007D0005040A9F79E3F510570F014C0A6CF5F3F6F
:1007E000ECF3983EDCF3869577956795B795F7958A
:1007F000E7959F5FC1F7FE2B880F911D9695879512
:1008000097F9089597F99F6780E870E060E0089590
:100810009FEF80EC089500240A9416161706180618
:100820000906089500240A941216130614060506F4
:100830000895092E0394000C11F4882352F0BB0F85
:1008400040F4BF2B11F460FF04C06F5F7F4F8F4FE8
:100850009F4F0895052E97FB16F400940FD057FD77
:1008600005D023D007FC02D046F408C0509540952F
:10087000309521953F4F4F4F5F4F0895909580954C
:10088000709561957F4F8F4F9F4F0895A29FB00144
:10089000B39FC001A39F700D811D1124911DB29FB4
:1008A000700D811D1124911D0895A1E21A2EAA1B1D
:1008B000BB1BFD010DC0AA1FBB1FEE1FFF1FA21710
:1008C000B307E407F50720F0A21BB30BE40BF50B0D
:1008D000661F771F881F991F1A9469F76095709596
:1008E000809590959B01AC01BD01CF010895F894CE
:0208F000FFCF38
:1008F20004040402010801020404010404040208BD
:1009020002040402060602040404020E020A080497
:10091200040402010801020404010404040208019F
:10092200020402020806020401040104020218047D
:100932000404010401040102010604010402010A83
:10094200080602010804010401040206040402016B
:100952000E02010A04040401040104010201060456
:10096200010402010A06020106020108040104014F
:100972000402060404021A08040404040104020125
:100982000601020102040404020A0402020404042D
:10099200040406020106020404040404100602010F
:1009A2000804010401040102010604010402120404
:1009B2000404040104040104020A060201060201FD
:1009C20004010201080602020402120B0288014B12
:1009D200020B0200000B0200000B024B029302000A
:1009E200009302BA02B8010B024B02EE010B02EEB7
:1009F20001B801880100004A01EE010B024A018898
:100A020001B8010B02B80188010B0288014B020BED
:100A12000200000B0200000B024B02930200009343
:100A220002BA02B8010B024B0200004B0293024BC6
:100A3200020B020B020000EE01B8010000B8010037
:100A420000B801EE010B024B029302BA021003003E
:100A5200001003000010030000100300001003BA8E
:100A6200020000BA0293020000930200004B0293BC
:100A72000200009302BA020000BA020000BA029316
:100A820002BA0293024B020B0200000B024B02005D
:100A9200004B029302BA0210030000100300001080
:100AA200030000100300001003BA020000BA029310
:100AB20002000093022A024B0200004B0293020042
:100AC200009302BA020000BA020000BA029302BA0C
:100AD2000293024B020B0210030000000088010B7C
:100AE200024B0200004B02930200009302000093AB
:100AF2000200009302BA0293024B020B024B020065
:100B0200004B029302BA029302EE01D201EE014BB4
:100B1200020B0200000B02EE01B801700393024BBC
:100B2200020B024B029302BA020000BA0210030047
:100B3200001003000010030000100300001003BAAD
:100B4200020000BA029302700300001003BA02937B
:100B52000200009302BA020000BA029302BA020033
:100B620000930200009302BA020000BA020000BA27
:100B7200020000BA0293024B020B024B02EE010B7F
:100B8200025F3F065B4F666D7D277F6F777C395E24
:020B9200797177
:00000001FF
