S015000074696D65725F70726F6A6563742E7372656398
S113000065C0000078C0000076C0000074C0000025
S113001072C0000070C000006EC000006CC0000020
S11300206AC0000068C0000066C0000064C0000030
S113003062C0000060C000005EC000005CC0000040
S11300405AC0000058C0000056C0000054C0000050
S113005052C0000050C000004EC000004CC0000060
S11300604AC0000048C0000046C0000044C0000070
S113007042C0000040C000003EC000003CC0000080
S11300803AC0000038C0000036C0000034C0000090
S113009032C0000030C000002EC000002CC00000A0
S11300A02AC0000028C0000026C0000024C00000B0
S11300B022C0000020C000001EC000001CC00000C0
S11300C01AC0000018C0000016C0000011241FBE92
S11300D0CFEFD1E2DEBFCDBF12E0A0E0B2E0EEE8A8
S11300E0F1E000E00BBF02C007900D92A030B10711
S11300F0D9F73CD04AC084CF9FB7F89484BB68B981
S113010087E084BB99230CF47894089560E080E040
S1130110F3DF60E081E0F0DF60E082E0EDCF08959E
S11301209FB7F89423E024BB88B987E084BB992364
S11301300CF4789408958FEF87B987E083BB249AF1
S1130140E5DF8FEFEDCF089588E08DB980E284B9C3
S113015008958AE08093910089EF90E0909399004C
S11301608093980083E0809321010895EDDFF1DF0F
S11301707894E1DFE4E9F0E028E080819181892B43
S1110180E1F78EB182278EB9F8CFF894FFCF45
S9030000FC
