S0140000414443315F70726F6A6563742E73726563C1
S113000065C0000080C000007EC000007CC000000D
S11300107AC0000078C0000076C0000074C0000000
S113002072C0000070C000006EC000006CC0000010
S11300306AC0000068C0000066C0000064C0000020
S113004062C0000060C000005EC000005CC0000030
S11300505AC0000058C0000056C0000054C0000040
S113006052C000005FC100004EC000004CC0000040
S11300704AC000000CC1000046C0000044C000009B
S113008042C0000040C000003EC000003CC0000070
S11300903AC0000038C0000036C0000034C0000080
S11300A032C0000030C000002EC000002CC0000090
S11300B02AC0000028C0000026C0000024C00000A0
S11300C022C0000020C000001EC0000011241FBE7A
S11300D0CFEFD1E2DEBFCDBF12E0A0E0B2E0ECE7AB
S11300E0F7E000E00BBF02C007900D92AE31B107FC
S11300F0D9F722E0AEE1B2E001C01D92A832B20706
S1130100E1F742D139C37CCF9FB7F89484BB68B977
S113011087E084BB99230CF47894089560E080E030
S1130120F3DF60E081E0F0DF60E082E0EDCF08958E
S1130130E62FF0E0E25FFD4F90E8499FA001112413
S11301406081642BE1CF08950F931F93CF93DF93C6
S11301508C019C01ADECBCEC74D1FC01F695E795E7
S1130160F695E795F695E795CF01880F991FEE0F61
S1130170FF1FEE0FFF1FEE0FFF1FE80FF91FC8014F
S11301808E1B9F0BFC015DD1AC015695479556958E
S11301904795569547959A0154D1EC01D695C79544
S11301A0D695C795D695C795CE01880F991FCC0FC4
S11301B0DD1FCC0FDD1FCC0FDD1FC80FD91FCA01F7
S11301C08C1B9D0BEC010A30110558F440E06E2F96
S11301D080E0AEDF60E081E097DF60E082E094DF02
S11301E03DC00436110560F440E06E2F80E0A0DFCE
S11301F040E06C2F81E09CDF60E082E085DF2EC070
S113020040E06E2F80E094DF40E06C2F81E090DFCF
S113021098013695279536952795ABE7B4E111D12A
S1130220AC01569547959A01ADECBCEC0AD1969574
S1130230879596958795969587959C01220F331FF0
S1130240880F991F880F991F880F991F820F931F7A
S1130250BA01681B790B40E082E06ADFDF91CF913D
S11302601F910F9108959FB7F89423E024BB88B998
S113027087E084BB99230CF4789408958FEF87B9B1
S113028087E083BB249A4ADF8FEFEDCF08951F9256
S11302900F920FB60F9211240BB60F922F933F9328
S11302A04F935F936F937F938F939F93AF93BF937A
S11302B0EF93FF93809178009091790045DFFF914F
S11302C0EF91BF91AF919F918F917F916F915F91CA
S11302D04F913F912F910F900BBE0F900FBE0F9037
S11302E01F901895EAE7F0E0808180688083ACE78E
S11302F0B0E08C9180648C9380818860808380815D
S1130300876080830895ECE7F0E09081907F90838C
S113031090818F70982B9083EAE7F0E0808180646D
S1130320808308951F920F920FB60F9211240BB67B
S11303300F922F933F934F935F936F937F938F937A
S11303409F93AF93BF93EF93FF938091C600813641
S113035011F483E0D8DFE6ECF0E080818083FF9144
S1130360EF91BF91AF919F918F917F916F915F9129
S11303704F913F912F910F900BBE0F900FBE0F9096
S11303801F9018955B9A0895CF93DF93CDB7DEB78E
S113039028970FB6F894DEBF0FBECDBFA3DFF2DF00
S11303A06DDF25D061E172E089E192E059D088E007
S11303B0E6E0F2E0DE01119601900D928A95E1F7F4
S11303C080E011E0180F8770E1E0F0E0EC0FFD1F12
S11303D0E80FF11D808147DF2FEF84E39CE021507B
S11303E080409040E1F700C00000812FEACF80E117
S11303F090E09093C5008093C400E0ECF0E080812D
S113040082608083E1ECF0E0808180688083808179
S113041088618083E2ECF0E0808186608083789458
S11304200895E0ECF0E080818823ECF78091C60029
S11304300895E0ECF0E0908195FFFDCF8093C60035
S11304400895A29FB001B39FC001A39F700D811DA9
S11304501124911DB29F700D811D1124911D0895C9
S11304600F931F93CF93DF93009731F461157105B8
S113047019F480E090E039C08B01EC016EE070E08B
S113048081E090E037D0FC01892B99F380E88383E5
S11304900115110571F01387028781E88383809128
S11304A01E0290911F02892B21F4F0931F02E09306
S11304B01E022097C9F0D187C0878381826083831D
S11304C08091200290912102892B71F4F0932102F2
S11304D0E09320028091220290912302892B21F43F
S11304E0F0932302E0932202CF01DF91CF911F9179
S11304F00F9108950F931F93CF93DF93869F8001ED
S1130500879F100D969F100D1124C8010DD0EC018A
S1130510009721F0A80160E070E027D1CE01DF91BF
S1130520CF911F910F9108950F931F93CF93DF9352
S11305308230910510F482E090E0E0912602F0917F
S1130540270220E030E0A0E0B0E0309719F14081CC
S113055051810281138148175907C8F08417950700
S113056069F4109731F012960C93129713961C931A
S113057027C0009326021093270222C021153105BB
S113058019F04217530718F49A01BD01EF01DF0176
S1130590F801DBCF21153105F9F0281B390B243084
S11305A0310580F48A819B816115710521F0FB017D
S11305B09383828304C09093270280932602FE01D2
S11305C0329644C0FE01E20FF31F819391932250AF
S11305D03109398328833AC02091240230912502BD
S11305E0232B41F42091020230910302309325021F
S11305F0209324022091000230910102211531053B
S113060041F42DB73EB74091040250910502241BDA
S1130610350BE0912402F0912502E217F307A0F4D0
S11306202E1B3F0B2817390778F0AC014E5F5F4F44
S11306302417350748F04E0F5F1F5093250240934F
S113064024028193919302C0E0E0F0E0CF01DF91B6
S1130650CF911F910F910895CF93DF93009709F4E1
S113066081C0FC01329713821282A0912602B091BC
S11306702702109781F420813181820F931F2091EA
S11306802402309125022817390751F5F0932502E9
S1130690E093240267C0ED0120E030E0CE17DF07CD
S11306A040F44A815B819E0141155105F1F0EA0154
S11306B0F5CFD383C28340815181840F951FC8171E
S11306C0D90759F488819981840F951F02969183E3
S11306D080838A819B81938382832115310529F448
S11306E0F0932702E09326023DC0E901FB83EA83ED
S11306F049915991C40FD51FEC17FD0761F480810E
S11307009181840F951F0296E901998388838281E0
S113071093819B838A83E0E0F0E012968D919C9113
S11307201397009719F0FD01DC01F7CF8D919C918F
S113073011979D012E5F3F4F820F931F209124023A
S1130740309125022817390769F4309729F410925B
S113075027021092260202C013821282B09325024D
S1130760A0932402DF91CF910895DC0101C06D9321
S10F077041505040E0F70895F894FFCF8A
S113077C00002802200081C3E7FF7E3C18003F06DE
S111078C5B4F666D7D277F6F777C395E7971D8
S9030000FC
